:100000000C9438000C9455000C9455000C94550039
:100010000C9455000C9455000C9455000C9455000C
:100020000C9455000C9455000C9455000C945500FC
:100030000C9455000C9455000C9455000C945500EC
:100040000C9455000C9455000C9455000C945500DC
:100050000C9455000C9455000C9455000C945500CC
:100060000C9455000C9455000C9455000C945500BC
:1000700011241FBECFEFD4E0DEBFCDBF12E0A0E061
:10008000B1E0E6E9FAE002C005900D92A231B107B5
:10009000D9F722E0A2E1B2E001C01D92AC31B20773
:1000A000E1F70E9490000C9449050C9400005F9BBE
:1000B00003C08CB190E0089580E090E0089585B78A
:1000C000806885BF80B7806280BF0895FB01F85EBD
:1000D00080830895985EFC01808108955D9BFECF2A
:1000E0008CB90895CF93C82F8A3021F48DE090E029
:1000F0000E946E008C2F90E00E946E0080E090E0E5
:10010000CF91089510BC8FE189B988E18AB98EE852
:1001100080BD67E570E082E790E00E94DC00089512
:1001200080E895E20E94820086E091E090931502BB
:10013000809314020E945F0060E070E081E00E9402
:1001400066002FE986E891E0215080409040E1F779
:1001500000C0000060E071E083E00E9466002FE9CB
:1001600086E891E0215080409040E1F700C0000017
:1001700080E090E00E946A001F921F921F928F936E
:10018000C9EFD1E0DF93CF930E94270180E091E097
:100190000E946A0091E09F931F921F928F93DF93BA
:1001A000CF930E9427018DB79EB70C960FB6F89497
:1001B0009EBF0FBE8DBFC0CF0F931F93CF93DF9312
:1001C000009731F46115710519F480E090E03AC0B0
:1001D0008B01EC016EE070E081E090E00E941E0374
:1001E000FC01892B91F380E883830115110571F0DF
:1001F0001387028781E88383809112029091130212
:10020000892B21F4F0931302E09312022097C9F096
:10021000D187C0878381826083838091140290910B
:100220001502892B71F4F0931502E093140280916A
:10023000160290911702892B21F4F0931702E09394
:100240001602CF01DF91CF911F910F910895A0E089
:10025000B0E0EDE2F1E00C942205AE014B5F5F4FA0
:10026000FA0161917191AF01809114029091150290
:100270000E943D01E2E00C943E05ABE0B0E0E3E417
:10028000F1E00C9412056C017B018A01FC011782DC
:100290001682838181FFCCC1CE0101963C01F6011B
:1002A0009381F70193FD859193FF81917F018823CD
:1002B00009F4BAC1853239F493FD859193FF819198
:1002C0007F01853229F4B60190E00E947804E7CFDF
:1002D000912C212C312CFFE1F315D8F08B3279F0E1
:1002E00038F4803279F08332A1F4232D20611DC0CF
:1002F0008D3261F0803369F4232D216016C0832D87
:100300008260382EE32DE4603E2E2AC0F32DF86083
:100310001DC037FC2DC020ED280F2A3040F08E3252
:10032000B9F436FC81C1232D2064322E19C036FE6B
:1003300006C08AE0989E200D1124922E11C0EAE09A
:100340002E9E200D1124222EF32DF0623F2E08C088
:100350008C3621F4832D8068382E02C0883641F413
:10036000F70193FD859193FF81917F018111B3CFB7
:10037000982F9F7D9554933028F40C5F1F4F9FE377
:1003800099830DC0833631F0833771F0833509F0DE
:1003900059C021C0F801808189830E5F1F4F8824D6
:1003A0008394912C530113C02801F2E04F0E511C8D
:1003B000F801A080B18036FE03C0692D70E002C054
:1003C0006FEF7FEFC5010E946D044C018201F32D98
:1003D000FF773F2E16C0280122E0420E511CF80183
:1003E000A080B18036FE03C0692D70E002C06FEFBF
:1003F0007FEFC5010E945B044C01F32DF0683F2E96
:10040000820133FC1BC0822D90E088169906B0F45F
:10041000B60180E290E00E9478042A94F4CFF501BE
:1004200037FC859137FE81915F01B60190E00E9413
:10043000780421102A9421E0821A910881149104F1
:1004400071F7E8C0843611F0893641F5F80137FEBE
:1004500007C060817181828193810C5F1F4F08C04A
:1004600060817181072E000C880B990B0E5F1F4F66
:10047000F32DFF763F2E97FF09C0909580957095DC
:1004800061957F4F8F4F9F4FF0683F2E2AE030E0FD
:10049000A3010E94B404882E861845C0853731F424
:1004A000232D2F7EB22E2AE030E025C0932D997F98
:1004B000B92E8F36C1F018F4883579F0B5C0803781
:1004C00019F0883721F0B0C0E92FE061BE2EB4FEEC
:1004D0000DC0FB2DF460BF2E09C034FE0AC0292FC9
:1004E0002660B22E06C028E030E005C020E130E0F2
:1004F00002C020E132E0F801B7FE07C060817181DF
:10050000828193810C5F1F4F06C06081718180E002
:1005100090E00E5F1F4FA3010E94B404882E86183E
:10052000FB2DFF773F2E36FE0DC0232D2E7FA22EF2
:10053000891458F434FE0BC032FC09C0832D8E7E22
:10054000A82E05C0B82CA32C03C0B82C01C0B92C10
:10055000A4FE0FC0FE01E80DF11D8081803321F45F
:100560009A2D997EA92E09C0A2FE06C0B394B39419
:1005700004C08A2D867809F0B394A3FC11C0A0FEB4
:1005800006C0B21488F4280C922C9B180EC0B2142A
:1005900060F4B60180E290E00E947804B394F7CF53
:1005A000B21418F42B1802C0982C212CA4FE10C0F1
:1005B000B60180E390E00E947804A2FE17C0A1FC7F
:1005C00003C088E790E002C088E590E0B6010CC067
:1005D0008A2D867859F0A1FE02C08BE201C080E22C
:1005E000A7FC8DE2B60190E00E947804891438F4EB
:1005F000B60180E390E00E9478049A94F7CF8A9441
:10060000F301E80DF11D8081B60190E00E947804AD
:100610008110F5CF222009F442CEB60180E290E0AD
:100620000E9478042A94F6CFF6018681978102C051
:100630008FEF9FEF2B96E2E10C942E050F931F9303
:10064000CF93DF93869F8001879F100D969F100D9B
:100650001124C8010E943A03EC01009729F0A80177
:1006600060E070E00E946604CE01DF91CF911F919F
:100670000F9108950F931F93CF93DF9382309105CD
:1006800010F482E090E0E0911A02F0911B0220E069
:1006900030E0A0E0B0E0309719F140815181028153
:1006A000138148175907C8F08417950769F4109704
:1006B00031F012960C93129713961C9327C0009357
:1006C0001A0210931B0222C02115310519F042179E
:1006D000530718F49A01BD01EF01DF01F801DBCFE8
:1006E00021153105F9F0281B390B2430310580F430
:1006F0008A819B816115710521F0FB0193838283BF
:1007000004C090931B0280931A02FE01329644C0EB
:10071000FE01E20FF31F8193919322503109398337
:1007200028833AC02091180230911902232B41F4FA
:100730002091020130910301309319022093180295
:1007400020910001309101012115310541F42DB7AF
:100750003EB74091040150910501241B350BE091F7
:100760001802F0911902E217F307A0F42E1B3F0BB9
:100770002817390778F0AC014E5F5F4F2417350713
:1007800048F04E0F5F1F5093190240931802819357
:10079000919302C0E0E0F0E0CF01DF91CF911F9193
:1007A0000F910895CF93DF93009709F481C0FC0166
:1007B000329713821282A0911A02B0911B021097F5
:1007C00081F420813181820F931F20911802309192
:1007D00019022817390751F5F0931902E09318020E
:1007E00067C0ED0120E030E0CE17DF0740F44A811A
:1007F0005B819E0141155105F1F0EA01F5CFD383EC
:10080000C28340815181840F951FC817D90759F4BD
:1008100088819981840F951F0296918380838A81B4
:100820009B81938382832115310529F4F0931B0268
:10083000E0931A023DC0E901FB83EA834991599193
:10084000C40FD51FEC17FD0761F480819181840FDF
:10085000951F0296E90199838883828193819B8306
:100860008A83E0E0F0E012968D919C9113970097B7
:1008700019F0FD01DC01F7CF8D919C9111979D013D
:100880002E5F3F4F820F931F209118023091190263
:100890002817390769F4309729F410921B02109237
:1008A0001A0202C013821282B0931902A093180296
:1008B000DF91CF910895FC010590615070400110C7
:1008C000D8F7809590958E0F9F1F0895DC0101C089
:1008D0006D9341505040E0F70895FC016150704025
:1008E00001900110D8F7809590958E0F9F1F089565
:1008F0000F931F93CF93DF93FB01238121FD03C04F
:100900008FEF9FEF2CC022FF16C0468157812481B4
:1009100035814217530744F4A081B1819D012F5FB7
:100920003F4F318320838C93268137812F5F3F4F48
:100930003783268314C08B01EC01FB010084F18511
:10094000E02D0995892BE1F6D80116968D919C91A1
:100950001797019617969C938E931697CE01DF9169
:10096000CF911F910F910895FA01AA27283051F1D4
:10097000203181F1E8946F936E7F6E5F7F4F8F4FD0
:100980009F4FAF4FB1E03ED0B4E03CD0670F781F2F
:10099000891F9A1FA11D680F791F8A1F911DA11D14
:1009A0006A0F711D811D911DA11D20D009F468944D
:1009B0003F912AE0269F11243019305D3193DEF6F5
:1009C000CF010895462F4770405D4193B3E00FD0AB
:1009D000C9F7F6CF462F4F70405D4A3318F0495D96
:1009E00031FD4052419302D0A9F7EACFB4E0A69579
:1009F0009795879577956795BA95C9F7009761059B
:100A0000710508959B01AC010A2E069457954795F0
:100A100037952795BA95C9F7620F731F841F951FE5
:100A2000A01D08952F923F924F925F926F927F92F6
:100A30008F929F92AF92BF92CF92DF92EF92FF92EE
:100A40000F931F93CF93DF93CDB7DEB7CA1BDB0B9A
:100A50000FB6F894DEBF0FBECDBF09942A8839883F
:100A600048885F846E847D848C849B84AA84B98446
:100A7000C884DF80EE80FD800C811B81AA81B98152
:100A8000CE0FD11D0FB6F894DEBF0FBECDBFED0166
:060A90000895F894FFCF69
:100A960000001C022000000000020000000072009E
:100AA600000000005374617274696E6720535241EE
:100AB6004D20746573742E2E2E005772697465204E
:100AC6007068617365206572726F723A206578741A
:100AD6005F72616D5B2534645D203D2025303258A0
:100AE600202873686F756C64206265202530325843
:100AF600290A0052657472696576616C20706861B6
:100B06007365206572726F723A206578745F7261E0
:100B16006D5B2534645D203D2025303258202873D6
:100B2600686F756C642062652025303258290A008A
:100B36005352414D207465737420636F6D706C65FC
:100B46007465642077697468200A253464206572A8
:100B5600726F727320696E2077726974652070688F
:100B660061736520616E64200A25346420657272A3
:100B76006F727320696E2072657472696576616C36
:100B86002070686173650A0A00646174613A202501
:100B96003032582C20616464723A20253034580A69
:020BA60000004D
:00000001FF
