S00E000074696B746F6B2E7372656380
S11300000C94B4010C94D1010C94D1010C94D10141
S11300100C94D1010C94D1010C94D1010C94D10114
S11300200C94D1010C94D1010C94D1010C94D10104
S11300300C94D1010C94D1010C94D1010C94D101F4
S11300400C94D1010C94D1010C94D1010C94D101E4
S11300500C94D1010C94D1010C94D1010C94D101D4
S11300600C94D1010C94D1010C94D1010C94D101C4
S1130070000000000000000000065F5F06000000B2
S11300800007070007070000147F7F147F7F140018
S1130090242E6B6B3A120000466630180C66620020
S11300A0307A4F5D377A48000407030000000000EF
S11300B0001C3E63410000000041633E1C00000040
S11300C0082A3E1C1C3E2A0808083E3E0808000078
S11300D000A0E0600000000008080808080800000C
S11300E000006060000000006030180C060301008E
S11300F03E7F594D7F3E000042427F7F40400000DA
S1130100627359496F660000226349497F360000D3
S1130110181C16137F7F1000276745457D390000A2
S11301203C7E4B4979300000036371190F070000CE
S1130130367F49497F360000064F49693F1E00005B
S113014000006C6C0000000000A0EC6C00000000DB
S1130150081C366341000000141414141414000025
S1130160004163361C080000020351590F060000C9
S11301703E7F415D5D1F1E007C7E13137E7C00006C
S1130180417F7F49497F36001C3E63414163220021
S1130190417F7F41637F1C00417F7F495D41630054
S11301A0417F7F491D0103001C3E6341517372006E
S11301B07F7F08087F7F000000417F7F41000000AF
S11301C0307040417F3F0100417F7F081C7763000E
S11301D0417F7F41406070007F7F060C067F7F0077
S11301E07F7F060C187F7F001C3E6341633E1C002A
S11301F0417F7F49090F06001E3F21717F5E000089
S1130200417F7F19396F460026674D597B320000C4
S113021003417F7F410300007F7F40407F7F0000D8
S11302201F3F60603F1F00007F7F3018307F7F00DA
S113023063771C081C776300074F78784F0700002A
S11302406773594D47637100007F7F41410000008F
S11302500103060C183060000041417F7F0000005C
S1130260080C0603060C0800808080808080808053
S11302700000030704000000207454543C7840003C
S1130280413F7F44447C3800387C44446C2800005F
S1130290307848493F7F4000387C54545C18000053
S11302A0487E7F490302000098BCA4A4F87C0400A3
S11302B0417F7F08047C780000447D7D400000007D
S11302C040C484FD7D000000417F7F10386C4400F1
S11302D000417F7F400000007C7C0C180C7C78007F
S11302E07C7C04047C780000387C44447C38000026
S11302F084FCF8A4243C1800183C24A4F8FC8400D2
S1130300447C78441C180000485C54547424000055
S113031000043E7F442400003C7C40403C7C400080
S11303201C3C60603C1C00003C7C6030607C3C00F9
S1130330446C3810386C44009CBCA0A0FC7C0000C9
S11303404C64745C4C64000008083E774141000032
S113035000000077770000004141773E0808000064
S1130360020301030203010011241FBECFEFD4E0F6
S1130370DEBFCDBF12E0A0E0B1E0ECE7F4E102C0E3
S113038005900D92AE3AB107D9F722E0AEEAB2E099
S113039001C01D92A33CB207E1F70E94A0050C9492
S11303A03C0A0C9400005F9B03C08CB190E008955C
S11303B080E090E008955D9BFECF8CB90895CF93C3
S11303C0C82F8A3021F48DE090E00E94DB018C2F4D
S11303D090E00E94DB0180E090E0CF91089510BC92
S11303E08FE189B988E18AB98EE880BD63ED71E057
S11303F08FED91E00E94F006089585B7806885BF6F
S113040080B7806280BF0895FA01E60FF71F8083EA
S11304100895860F971FFC018081089581B3806140
S113042081BBEBE8F0E0808180648083EAE8F0E05F
S113043080818960808310928700109286000895DD
S113044040E054E161E070E080E80E940402089515
S11304500F931F93CF93DF93CDB7DEB728970FB6D3
S1130460F894DEBF0FBECDBF0E94200260E074E1AD
S113047080E090E00E94090201EB12E090E0F801B4
S11304809183808360E074E180E090E00E9409023F
S113049090E0F8019383828360E074E180E090E06F
S11304A00E94090260E074E180E090E00E94090289
S11304B081EE94E00197F1F700C00000F80180811B
S11304C091819C01215A31092930310538F4118276
S11304D010828BEF91E0958384834DC0803A91051F
S11304E0F0F444E6489F9001499F300D1124A3EB9A
S11304F0B2E60E94C0050024880F991F001C880FD3
S1130500991F001C892F902D84569109E1EBF2E08C
S11305109183808383E092E0958384832CC09C0143
S11305202A5A310926353105F0F444E6489F9001F2
S1130530499F300D112428563244A1ECB0EC0E949E
S1130540C0050024880F991F001C880F991F001CE8
S1130550892F902DE1EBF2E09183808388E092E093
S11305609583848308C0E1EBF2E0118210828EE06F
S113057092E0958384838091B3029091B4029C01AC
S11305802C5931092E30310548F4E1EBF2E01382A5
S113059012828BEF91E0978386834DC08C3991054D
S11305A0F0F444E6489F9001499F300D1124A3EBD9
S11305B0B2E60E94C0050024880F991F001C880F12
S11305C0991F001C892F902D84569109E1EBF2E0CC
S11305D09383828382E192E0978386832CC09C017B
S11305E02A5A310926353105F0F444E6489F900132
S11305F0499F300D112428563244A1ECB0EC0E94DE
S1130600C0050024880F991F001C880F991F001C27
S1130610892F902DE1EBF2E09383828387E192E0CE
S11306209783868308C0E1EBF2E0138212828EE0A6
S113063092E09783868388E0E1EBF2E0DE01119695
S113064001900D928A95E1F729813A814B815C8171
S11306506D817E818F81988528960FB6F894DEBFD0
S11306600FBECDBFDF91CF911F910F91089580935D
S1130670001008958093001208958EEA0E943703B3
S113068081EA0E9437038AED0E94370382E10E94C7
S1130690370388EC0E94370388EA0E9437038FE30C
S11306A00E94370385ED0E94370380E80E943703D8
S11306B081E80E94370380E50E94370389ED0E9498
S11306C0370381E20E94370380E20E94370382E00D
S11306D00E9437038BED0E94370380E30E943703A7
S11306E08DEA0E94370380E00E94370384EA0E9467
S11306F0370387EA0E9437038FEA0E94370383EDAA
S11307000E94370382E00E9437030895883018F46A
S113071080550E9437030895CF93882354F0C82F3F
S11307208F700E9437038C2F82958F70805F0E9498
S11307303703CF910895CF93C62F0E9486038C2F41
S11307400E948C03CF910895CF93DF93D0E00DC026
S113075060E08D2F0E949B03C0E004C080E00E94F3
S11307603A03CF5FCC23D4F7DF5FD83088F3DF912F
S1130770CF910895CF93DF93D2E00DC060E08D2F29
S11307800E949B03C0E004C080E00E943A03CF5F54
S1130790C531D0F3DF5FD63088F3DF91CF91089570
S11307A0CF93DF93D2E00DC060E08D2F0E949B03B6
S11307B0C6E104C080E00E943A03CF5FCC23D4F7A3
S11307C0DF5FD63088F3DF91CF9108950E949B03B9
S11307D088E10E943A0388E10E943A038EE70E946E
S11307E03A038CE30E943A0388E10E943A03089595
S11307F0CF93DF93D82FC0E011C0ED2FF0E0B09776
S1130800EE0FFF1FEE0FFF1FEE0FFF1FEC0FF11D8A
S1130810E059FF4F84910E943A03CF5FC83068F3D8
S1130820DF91CF9108950F931F93CF938C01C0E074
S113083003C00E94F803CF5FF801EC0FF11D808123
S11308408111F7CFCF911F910F910895CF93C82FA6
S11308500E94D00368E081E00E949B038AE192E059
S11308600E941304C11111C060E283E00E949B0343
S113087089E292E00E94130460E285E00E949B03F7
S11308808EE292E00E94130412C0C13081F460E24F
S113089083E00E949B0383E392E00E94130460E2DE
S11308A085E00E949B038CE392E00E941304CF91A5
S11308B008950E94A40360E283E00E949B0389E2FE
S11308C092E00E94130408950E94A40360E283E06E
S11308D00E949B0387E492E00E94130408950E94FF
S11308E0A40360E283E00E949B0381E592E00E94FE
S11308F0130408950E94A40360E283E00E949B0312
S11309008BE592E00E94130408950F931F93CF93F5
S1130910DF938C01EB0182E090E00E94CF05FC01A3
S113092011830083D383C28320E030E00AC0F9013D
S11309303296EE0FFF1FE80FF91F118210822F5F0E
S11309403F4F2A3031059CF3FC01128EDF91CF9189
S11309501F910F910895242F30E02E5F3F4F220FF7
S1130960331F820F931FFC0171836083FB01428F4D
S11309700895FC01718F608F0895AF92BF92CF925A
S1130980DF92EF92FF920F931F93CF93DF9360E078
S113099070E084E692E00E948504EC0188819981EC
S11309A09093070180930601BE0189E292E00E94C0
S11309B085045C01BE018EE692E00E9485046C0110
S11309C0BE0182E892E00E9485047C01BE018CE8AD
S11309D092E00E9485048C0140E0B501CE010E94A2
S11309E0AB0441E0B601CE010E94AB0442E0B70182
S11309F0CE010E94AB0443E0B801CE010E94AB04D7
S1130A0066E274E0CE010E94B90469E574E0C501B0
S1130A100E94B90464E674E0C6010E94B9046FE65A
S1130A2074E0C7010E94B9046AE774E0C8010E9437
S1130A30B90480E00E9426046FE083E00E94E6038C
S1130A408091AE021F928F938BE992E09F938F93D4
S1130A500E943B070F900F900F900F90DF91CF9162
S1130A601F910F91FF90EF90DF90CF90BF90AF90C8
S1130A700895811107C00E94BA036FE085E00E94C7
S1130A80E6030895813031F40E94BA036FE083E0F5
S1130A900E94E60308950E942802E1EBF2E020831D
S1130AA031834283538364837583868397838091E0
S1130AB00601909107018456924009F040C02091AC
S1130AC0B7023091B80282E022313807A1F4809154
S1130AD0AE02833080F480FD09C080E00E943905B5
S1130AE08091AE028F5F8093AE021BC086958F5FAC
S1130AF00E94260416C02751324099F48091AE0218
S1130B00882379F080FF09C081E00E943905809133
S1130B10AE0281508093AE0204C0869581500E943B
S1130B2026048091AE021F928F938BE992E09F93EB
S1130B308F930E943B070F900F900F900F90089592
S1130B4080E895E20E94EF0188E091E09093C00272
S1130B508093BF020E94FD010E940E020E943D0389
S1130B600E94A4030E94BD040E944B052FE38DE064
S1130B7093E0215080409040E1F700C00000F4CFA2
S1130B80A29FB001B39FC001A39F700D811D1124CA
S1130B90911DB29F700D811D1124911D08950F9315
S1130BA01F93CF93DF938230910510F482E090E09D
S1130BB0E091BB02F091BC0220E030E0A0E0B0E0A4
S1130BC0309719F1408151810281138148175907E7
S1130BD0C8F08417950769F4109731F012960C93B6
S1130BE0129713961C9327C00093BB021093BC0268
S1130BF022C02115310519F04217530718F49A0140
S1130C00BD01EF01DF01F801DBCF21153105F9F05A
S1130C10281B390B2430310580F48A819B816115AE
S1130C20710521F0FB019383828304C09093BC027D
S1130C308093BB02FE01329644C0FE01E20FF31F13
S1130C408193919322503109398328833AC02091AA
S1130C50B9023091BA02232B41F420910201309160
S1130C6003013093BA022093B9022091000130911C
S1130C7001012115310541F42DB73EB7409104011E
S1130C8050910501241B350BE091B902F091BA0291
S1130C90E217F307A0F42E1B3F0B2817390778F04F
S1130CA0AC014E5F5F4F2417350748F04E0F5F1FAE
S1130CB05093BA024093B9028193919302C0E0E049
S1130CC0F0E0CF01DF91CF911F910F910895CF9361
S1130CD0DF93009709F481C0FC01329713821282DA
S1130CE0A091BB02B091BC02109781F420813181A4
S1130CF0820F931F2091B9023091BA022817390745
S1130D0051F5F093BA02E093B90267C0ED0120E017
S1130D1030E0CE17DF0740F44A815B819E01411524
S1130D205105F1F0EA01F5CFD383C28340815181AB
S1130D30840F951FC817D90759F488819981840FA6
S1130D40951F0296918380838A819B8193838283FA
S1130D502115310529F4F093BC02E093BB023DC098
S1130D60E901FB83EA8349915991C40FD51FEC171C
S1130D70FD0761F480819181840F951F0296E9013A
S1130D8099838883828193819B838A83E0E0F0E066
S1130D9012968D919C911397009719F0FD01DC0137
S1130DA0F7CF8D919C9111979D012E5F3F4F820F3C
S1130DB0931F2091B9023091BA022817390769F4B8
S1130DC0309729F41092BC021092BB0202C0138225
S1130DD01282B093BA02A093B902DF91CF91089521
S1130DE00F931F93CF93DF93009731F4611571052F
S1130DF019F480E090E03AC08B01EC016EE070E001
S1130E0081E090E00E943209FC01892B91F380E893
S1130E1083830115110571F01387028781E88383A9
S1130E208091BD029091BE02892B21F4F093BE0201
S1130E30E093BD022097C9F0D187C0878381826087
S1130E4083838091BF029091C002892B71F4F09347
S1130E50C002E093BF028091C1029091C202892B2B
S1130E6021F4F093C202E093C102CF01DF91CF914C
S1130E701F910F910895A0E0B0E0E1E4F7E00C9435
S1130E80150AAE014B5F5F4FFA0161917191AF0199
S1130E908091BF029091C0020E945107E2E00C943D
S1130EA0310AABE0B0E0E7E5F7E00C94050A6C0129
S1130EB07B018A01FC0117821682838181FFCCC1E8
S1130EC0CE0101963C01F6019381F70193FD8591D2
S1130ED093FF81917F01882309F4BAC1853239F4E3
S1130EE093FD859193FF81917F01853229F4B601A9
S1130EF090E00E946B09E7CF912C212C312CFFE16B
S1130F00F315D8F08B3279F038F4803279F08332EB
S1130F10A1F4232D20611DC08D3261F0803369F46A
S1130F20232D216016C0832D8260382EE32DE460CA
S1130F303E2E2AC0F32DF8601DC037FC2DC020EDD5
S1130F40280F2A3040F08E32B9F436FC81C1232DAB
S1130F502064322E19C036FE06C08AE0989E200D09
S1130F601124922E11C0EAE02E9E200D1124222E6F
S1130F70F32DF0623F2E08C08C3621F4832D806857
S1130F80382E02C0883641F4F70193FD859193FF12
S1130F9081917F018111B3CF982F9F7D9554933018
S1130FA028F40C5F1F4F9FE399830DC0833631F003
S1130FB0833771F0833509F059C021C0F80180816D
S1130FC089830E5F1F4F88248394912C530113C08F
S1130FD02801F2E04F0E511CF801A080B18036FECA
S1130FE003C0692D70E002C06FEF7FEFC5010E945E
S1130FF060094C018201F32DFF773F2E16C02801B2
S113100022E0420E511CF801A080B18036FE03C0DC
S1131010692D70E002C06FEF7FEFC5010E944E0999
S11310204C01F32DF0683F2E820133FC1BC0822D4E
S113103090E088169906B0F4B60180E290E00E9430
S11310406B092A94F4CFF50137FC859137FE819121
S11310505F01B60190E00E946B0921102A9421E0FF
S1131060821A91088114910471F7E8C0843611F052
S1131070893641F5F80137FE07C0608171818281AC
S113108093810C5F1F4F08C060817181072E000C93
S1131090880B990B0E5F1F4FF32DFF763F2E97FFA2
S11310A009C090958095709561957F4F8F4F9F4FA4
S11310B0F0683F2E2AE030E0A3010E94A709882EA1
S11310C0861845C0853731F4232D2F7EB22E2AE0B1
S11310D030E025C0932D997FB92E8F36C1F018F4D6
S11310E0883579F0B5C0803719F0883721F0B0C061
S11310F0E92FE061BE2EB4FE0DC0FB2DF460BF2EBF
S113110009C034FE0AC0292F2660B22E06C028E08A
S113111030E005C020E130E002C020E132E0F80117
S1131120B7FE07C060817181828193810C5F1F4F7C
S113113006C06081718180E090E00E5F1F4FA301C3
S11311400E94A709882E8618FB2DFF773F2E36FEB6
S11311500DC0232D2E7FA22E891458F434FE0BC00B
S113116032FC09C0832D8E7EA82E05C0B82CA32C7A
S113117003C0B82C01C0B92CA4FE0FC0FE01E80DB9
S1131180F11D8081803321F49A2D997EA92E09C006
S1131190A2FE06C0B394B39404C08A2D867809F0E5
S11311A0B394A3FC11C0A0FE06C0B21488F4280CAA
S11311B0922C9B180EC0B21460F4B60180E290E049
S11311C00E946B09B394F7CFB21418F42B1802C021
S11311D0982C212CA4FE10C0B60180E390E00E945C
S11311E06B09A2FE17C0A1FC03C088E790E002C00F
S11311F088E590E0B6010CC08A2D867859F0A1FEEE
S113120002C08BE201C080E2A7FC8DE2B60190E04F
S11312100E946B09891438F4B60180E390E00E94BF
S11312206B099A94F7CF8A94F301E80DF11D80813C
S1131230B60190E00E946B098110F5CF222009F4D9
S113124042CEB60180E290E00E946B092A94F6CF68
S1131250F6018681978102C08FEF9FEF2B96E2E122
S11312600C94210A0F931F93CF93DF93869F8001E1
S1131270879F100D969F100D1124C8010E94CF0561
S1131280EC01009729F0A80160E070E00E94590980
S1131290CE01DF91CF911F910F910895FC0105902C
S11312A0615070400110D8F7809590958E0F9F1F64
S11312B00895DC0101C06D9341505040E0F708955A
S11312C0FC016150704001900110D8F78095909511
S11312D08E0F9F1F08950F931F93CF93DF93FB01EE
S11312E0238121FD03C08FEF9FEF2CC022FF16C086
S11312F046815781248135814217530744F4A081E4
S1131300B1819D012F5F3F4F318320838C932681D0
S113131037812F5F3F4F3783268314C08B01EC0145
S1131320FB010084F185E02D0995892BE1F6D801B4
S113133016968D919C911797019617969C938E9370
S11313401697CE01DF91CF911F910F910895FA0165
S1131350AA27283051F1203181F1E8946F936E7FF0
S11313606E5F7F4F8F4F9F4FAF4FB1E03ED0B4E0E1
S11313703CD0670F781F891F9A1FA11D680F791F22
S11313808A1F911DA11D6A0F711D811D911DA11D33
S113139020D009F468943F912AE0269F1124301943
S11313A0305D3193DEF6CF010895462F4770405DDE
S11313B04193B3E00FD0C9F7F6CF462F4F70405D8D
S11313C04A3318F0495D31FD4052419302D0A9F7E8
S11313D0EACFB4E0A6959795879577956795BA95E2
S11313E0C9F700976105710508959B01AC010A2EA8
S11313F006945795479537952795BA95C9F7620F7F
S1131400731F841F951FA01D08952F923F924F9222
S11314105F926F927F928F929F92AF92BF92CF9280
S1131420DF92EF92FF920F931F93CF93DF93CDB789
S1131430DEB7CA1BDB0B0FB6F894DEBF0FBECDBF01
S113144009942A88398848885F846E847D848C84D2
S11314509B84AA84B984C884DF80EE80FD800C81DB
S11314601B81AA81B981CE0FD11D0FB6F894DEBFBE
S10F14700FBECDBFED010895F894FFCF2E
S113147C0000C3022000FA0100000002000000007A
S113148CDF01000000005374617274696E672053AD
S113149C52414D20746573742E2E2E00577269744C
S11314AC65207068617365206572726F723A20658D
S11314BC78745F72616D5B2534645D203D2025304A
S11314CC3258202873686F756C642062652025304F
S11314DC3258290A0052657472696576616C207001
S11314EC68617365206572726F723A206578745FF7
S11314FC72616D5B2534645D203D202530325820AB
S113150C2873686F756C6420626520253032582905
S113151C0A005352414D207465737420636F6D70CF
S113152C6C657465642077697468200A25346420BA
S113153C6572726F727320696E207772697465209C
S113154C706861736520616E64200A2534642065BB
S113155C72726F727320696E20726574726965762B
S113156C616C2070686173650A0A004E45555452CB
S113157C414C004C454654005249474854002D2DCB
S113158C2D00444F574E0055500050494E472050A3
S113159C4F4E472047414D4500506C6179005175C1
S11315AC69740053657474696E67730050726F705C
S11315BC657274696573006869676873636F7265D3
S11315CC0063616C69627261746500736574206494
S11315DC696666004D61696E204D656E75005365D4
S11315EC652F5265736574204869676873636F72FD
S11315FC650043616C6962726174650053657420A3
S113160C446966666963756C747900435552524536
S111161C4E54204152524F573D25640A00009F
S9030000FC
