:100000000C94B4010C94D1010C94D1010C94D10145
:100010000C94D1010C94D1010C94D1010C94D10118
:100020000C94D1010C94D1010C94D1010C94D10108
:100030000C94D1010C94D1010C94D1010C94D101F8
:100040000C94D1010C94D1010C94D1010C94D101E8
:100050000C94D1010C94D1010C94D1010C94D101D8
:100060000C94D1010C94D1010C94D1010C94D101C8
:10007000000000000000000000065F5F06000000B6
:100080000007070007070000147F7F147F7F14001C
:10009000242E6B6B3A120000466630180C66620024
:1000A000307A4F5D377A48000407030000000000F3
:1000B000001C3E63410000000041633E1C00000044
:1000C000082A3E1C1C3E2A0808083E3E080800007C
:1000D00000A0E06000000000080808080808000010
:1000E00000006060000000006030180C0603010092
:1000F0003E7F594D7F3E000042427F7F40400000DE
:10010000627359496F660000226349497F360000D7
:10011000181C16137F7F1000276745457D390000A6
:100120003C7E4B4979300000036371190F070000D2
:10013000367F49497F360000064F49693F1E00005F
:1001400000006C6C0000000000A0EC6C00000000DF
:10015000081C366341000000141414141414000029
:10016000004163361C080000020351590F060000CD
:100170003E7F415D5D1F1E007C7E13137E7C000070
:10018000417F7F49497F36001C3E63414163220025
:10019000417F7F41637F1C00417F7F495D41630058
:1001A000417F7F491D0103001C3E63415173720072
:1001B0007F7F08087F7F000000417F7F41000000B3
:1001C000307040417F3F0100417F7F081C77630012
:1001D000417F7F41406070007F7F060C067F7F007B
:1001E0007F7F060C187F7F001C3E6341633E1C002E
:1001F000417F7F49090F06001E3F21717F5E00008D
:10020000417F7F19396F460026674D597B320000C8
:1002100003417F7F410300007F7F40407F7F0000DC
:100220001F3F60603F1F00007F7F3018307F7F00DE
:1002300063771C081C776300074F78784F0700002E
:100240006773594D47637100007F7F414100000093
:100250000103060C183060000041417F7F00000060
:10026000080C0603060C0800808080808080808057
:100270000000030704000000207454543C78400040
:10028000413F7F44447C3800387C44446C28000063
:10029000307848493F7F4000387C54545C18000057
:1002A000487E7F490302000098BCA4A4F87C0400A7
:1002B000417F7F08047C780000447D7D4000000081
:1002C00040C484FD7D000000417F7F10386C4400F5
:1002D00000417F7F400000007C7C0C180C7C780083
:1002E0007C7C04047C780000387C44447C3800002A
:1002F00084FCF8A4243C1800183C24A4F8FC8400D6
:10030000447C78441C180000485C54547424000059
:1003100000043E7F442400003C7C40403C7C400084
:100320001C3C60603C1C00003C7C6030607C3C00FD
:10033000446C3810386C44009CBCA0A0FC7C0000CD
:100340004C64745C4C64000008083E774141000036
:1003500000000077770000004141773E0808000068
:10036000020301030203010011241FBECFEFD4E0FA
:10037000DEBFCDBF12E0A0E0B1E0E0E4F9E002C0F2
:1003800005900D92AE32B107D9F722E0AEE2B2E0AD
:1003900001C01D92A833B207E1F70E94F8020C9445
:1003A0009E040C9400005F9B03C08CB190E0089504
:1003B00080E090E008955D9BFECF8CB90895CF93C7
:1003C000C82F8A3021F48DE090E00E94DB018C2F51
:1003D00090E00E94DB0180E090E0CF91089510BC96
:1003E0008FE189B988E18AB98EE880BD63ED71E05B
:1003F0008FED91E00E940F03089585B7806885BF57
:1004000080B7806280BF089581B3806181BBEBE8D3
:10041000F0E0808180648083EAE8F0E08081896098
:1004200080831092870010928600089580930010B8
:1004300008958093001208958EEA0E94160281EAC0
:100440000E9416028AED0E94160282E10E941602A4
:1004500088EC0E94160288EA0E9416028FE30E942E
:10046000160285ED0E94160280E80E94160281E8BD
:100470000E94160280E50E94160289ED0E94160273
:1004800081E20E94160280E20E94160282E00E942F
:1004900016028BED0E94160280E30E9416028DEA7E
:1004A0000E94160280E00E94160284EA0E94160250
:1004B00087EA0E9416028FEA0E94160283ED0E94CC
:1004C000160282E00E9416020895883018F48055C2
:1004D0000E9416020895CF93882354F0C82F8F707E
:1004E0000E9416028C2F82958F70805F0E941602E8
:1004F000CF910895CF93C62F0E9465028C2F0E9442
:100500006B02CF910895CF93DF93D0E00DC060E0F0
:100510008D2F0E947A02C0E004C080E00E94190280
:10052000CF5FCC23D4F7DF5FD83088F3DF91CF9152
:1005300008950E947A0288E10E94190288E10E94CF
:1005400019028EE70E9419028CE30E94190288E1C9
:100550000E9419020895CF93DF93D82FC0E011C0F5
:10056000ED2FF0E0B097EE0FFF1FEE0FFF1FEE0F25
:10057000FF1FEC0FF11DE059FF4F84910E941902FB
:10058000CF5FC83068F3DF91CF9108950F931F9329
:10059000CF938C01C0E003C00E94AB02CF5FF80193
:1005A000EC0FF11D80818111F7CFCF911F910F9139
:1005B00008950E94830268E081E00E947A0284E14B
:1005C00092E00E94C6026FE083E00E94990260E21E
:1005D00083E00E947A0283E292E00E94C60260E217
:1005E00085E00E947A0288E292E00E94C6020895A5
:1005F00080E895E20E94EF0186E091E0909331025D
:10060000809330020E94FD010E9404020E941C029D
:100610000E9483020E94D90280E090E008950F9327
:100620001F93CF93DF93009731F46115710519F48F
:1006300080E090E03AC08B01EC016EE070E081E078
:1006400090E00E945A03FC01892B91F380E8838398
:100650000115110571F01387028781E8838380916A
:100660002E0290912F02892B21F4F0932F02E09318
:100670002E022097C9F0D187C0878381826083834F
:100680008091300290913102892B71F4F093310204
:10069000E09330028091320290913302892B21F451
:1006A000F0933302E0933202CF01DF91CF911F919B
:1006B0000F9108950F931F93CF93DF93869F80012F
:1006C000879F100D969F100D1124C8010E9476037C
:1006D000EC01009729F0A80160E070E00E94970407
:1006E000CE01DF91CF911F910F9108950F931F932A
:1006F000CF93DF938230910510F482E090E0E09197
:100700003602F091370220E030E0A0E0B0E0309710
:1007100019F1408151810281138148175907C8F0AE
:100720008417950769F4109731F012960C9312977D
:1007300013961C9327C0009336021093370222C0F1
:100740002115310519F04217530718F49A01BD011C
:10075000EF01DF01F801DBCF21153105F9F0281B8E
:10076000390B2430310580F48A819B816115710534
:1007700021F0FB019383828304C09093370280931E
:100780003602FE01329644C0FE01E20FF31F819350
:10079000919322503109398328833AC02091340241
:1007A00030913502232B41F4209102013091030155
:1007B00030933502209334022091000130910101E1
:1007C0002115310541F42DB73EB7409104015091F8
:1007D0000501241B350BE0913402F0913502E2173C
:1007E000F307A0F42E1B3F0B2817390778F0AC0154
:1007F0004E5F5F4F2417350748F04E0F5F1F509331
:100800003502409334028193919302C0E0E0F0E01E
:10081000CF01DF91CF911F910F910895CF93DF9377
:10082000009709F481C0FC01329713821282A091D3
:100830003602B0913702109781F420813181820F06
:10084000931F20913402309135022817390751F552
:10085000F0933502E093340267C0ED0120E030E010
:10086000CE17DF0740F44A815B819E014115510597
:10087000F1F0EA01F5CFD383C28340815181840F27
:10088000951FC817D90759F488819981840F951F3E
:100890000296918380838A819B8193838283211531
:1008A000310529F4F0933702E09336023DC0E901A7
:1008B000FB83EA8349915991C40FD51FEC17FD07BB
:1008C00061F480819181840F951F0296E9019983DB
:1008D0008883828193819B838A83E0E0F0E0129693
:1008E0008D919C911397009719F0FD01DC01F7CFD2
:1008F0008D919C9111979D012E5F3F4F820F931F09
:1009000020913402309135022817390769F4309765
:1009100029F4109237021092360202C0138212821A
:10092000B0933502A0933402DF91CF910895DC019A
:1009300001C06D9341505040E0F70895F894FFCF07
:100940000000380220000000000200000000DF016B
:10095000000000005374617274696E672053524145
:100960004D20746573742E2E2E00577269746520A5
:100970007068617365206572726F723A2065787471
:100980005F72616D5B2534645D203D2025303258F7
:10099000202873686F756C6420626520253032589A
:1009A000290A0052657472696576616C207068610D
:1009B0007365206572726F723A206578745F726138
:1009C0006D5B2534645D203D20253032582028732E
:1009D000686F756C642062652025303258290A00E2
:1009E0005352414D207465737420636F6D706C6554
:1009F0007465642077697468200A25346420657200
:100A0000726F727320696E207772697465207068E6
:100A100061736520616E64200A25346420657272FA
:100A20006F727320696E2072657472696576616C8D
:100A30002070686173650A0A004E45555452414C56
:100A4000004C45465400524947485400444F574EC5
:100A50000055500050494E4720504F4E47204741C7
:0E0A60004D4500506C617900517569740000BD
:00000001FF
