:100000000C9438000C9455000C9455000C94550039
:100010000C9455000C9455000C9455000C9455000C
:100020000C9455000C9455000C9455000C945500FC
:100030000C9455000C9455000C9455000C945500EC
:100040000C9455000C9455000C9455000C945500DC
:100050000C9455000C9455000C9455000C945500CC
:100060000C9455000C9455000C9455000C945500BC
:1000700011241FBECFEFD4E0DEBFCDBF11E0A0E062
:10008000B1E0E8EAF4E002C005900D92A630B107B5
:10009000D9F721E0A6E0B1E001C01D92A031B2077E
:1000A000E1F70E9473000C9452020C9400005D9BD7
:1000B000FECF8CB980E090E008955F9B03C08CB1C7
:1000C00090E0089580E090E0089510BC8FE189B938
:1000D00088E18AB98EE880BD6DE570E087E590E043
:1000E0000E948000089580E895E20E94650084E601
:1000F0000E9457000E945D0099270E94CB00F7CF15
:100100000F931F93CF93DF93009731F4611571051F
:1001100019F480E090E03AC08B01EC016EE070E0F1
:1001200081E090E00E94D200FC01892B91F380E8ED
:1001300083830115110571F01387028781E883839A
:100140008091060190910701892B21F4F09307011A
:10015000E09306012097C9F0D187C0878381826030
:1001600083838091080190910901892B71F4F093A8
:100170000901E093080180910A0190910B01892BFC
:1001800021F4F0930B01E0930A01CF01DF91CF91AD
:100190001F910F91089560910801709109010E94CB
:1001A000160208950F931F93CF93DF93869F8001CC
:1001B000879F100D969F100D1124C8010E94EE001C
:1001C000EC01009729F0A80160E070E00E940F02A6
:1001D000CE01DF91CF911F910F9108950F931F933F
:1001E000CF93DF938230910510F482E090E0E091AC
:1001F0000E01F0910F0120E030E0A0E0B0E0309778
:1002000019F1408151810281138148175907C8F0C3
:100210008417950769F4109731F012960C93129792
:1002200013961C9327C000930E0110930F0122C058
:100230002115310519F04217530718F49A01BD0131
:10024000EF01DF01F801DBCF21153105F9F0281BA3
:10025000390B2430310580F48A819B816115710549
:1002600021F0FB019383828304C090930F0180935C
:100270000E01FE01329644C0FE01E20FF31F81938E
:10028000919322503109398328833AC020910C017F
:1002900030910D01232B41F4209102013091030193
:1002A00030930D0120930C01209100013091010148
:1002B0002115310541F42DB73EB74091040150910D
:1002C0000501241B350BE0910C01F0910D01E217A3
:1002D000F307A0F42E1B3F0B2817390778F0AC0169
:1002E0004E5F5F4F2417350748F04E0F5F1F509346
:1002F0000D0140930C018193919302C0E0E0F0E086
:10030000CF01DF91CF911F910F910895CF93DF938C
:10031000009709F481C0FC01329713821282A091E8
:100320000E01B0910F01109781F420813181820F6D
:10033000931F20910C0130910D012817390751F5B9
:10034000F0930D01E0930C0167C0ED0120E030E077
:10035000CE17DF0740F44A815B819E0141155105AC
:10036000F1F0EA01F5CFD383C28340815181840F3C
:10037000951FC817D90759F488819981840F951F53
:100380000296918380838A819B8193838283211546
:10039000310529F4F0930F01E0930E013DC0E9010E
:1003A000FB83EA8349915991C40FD51FEC17FD07D0
:1003B00061F480819181840F951F0296E9019983F0
:1003C0008883828193819B838A83E0E0F0E01296A8
:1003D0008D919C911397009719F0FD01DC01F7CFE7
:1003E0008D919C9111979D012E5F3F4F820F931F1E
:1003F00020910C0130910D012817390769F43097CD
:1004000029F410920F0110920E0102C01382128281
:10041000B0930D01A0930C01DF91CF910895DC0101
:1004200001C06D9341505040E0F708950F931F9322
:10043000CF93DF93FB01238121FD03C08FEF9FEF5B
:100440002CC022FF16C04681578124813581421776
:10045000530744F4A081B1819D012F5F3F4F318349
:1004600020838C93268137812F5F3F4F37832683EC
:1004700014C08B01EC01FB010084F185E02D09958E
:10048000892BE1F6D80116968D919C9117970196CC
:1004900017969C938E931697CE01DF91CF911F9163
:0804A0000F910895F894FFCFBD
:0604A8000000100120001D
:00000001FF
